:020000040800F2
:1000000000000220DD3000081D0E00081F0E000851
:10001000210E0008230E0008250E00080000000035
:10002000000000000000000000000000270E000893
:10003000290E0008000000002B0E00082D0E0008FD
:100040002D3100082D3100082D3100082D31000818
:100050002D3100082D3100082D3100082D31000808
:100060002D3100082D3100082D3100082D310008F8
:100070002D3100082D310008350E00082D31000803
:10008000450E00082D3100082D3100080000000049
:100090000000000000000000000000002D310008FA
:1000A0002D3100082D3100082D3100082D310008B8
:1000B0002D3100082D3100082D3100082D310008A8
:1000C0002D3100082D3100082D3100082D31000898
:1000D0002D3100082D3100082D31000800000000EE
:1000E0002D3100082D3100082D31000800000000DE
:1000F0000000000000000000000000002D3100089A
:10010000000000002D3100082D3100082D310008BD
:1001100000000000000000000000000000000000DF
:100120002D3100082D3100082D3100082D31000837
:100130002D31000800000000000000000000000059
:100140000000000000000000000000002D31000849
:100150002D3100082D3100082D3100082D31000807
:100160002D3100082D3100080000000000000000C3
:10017000000000000000000000000000000000007F
:10018000000000002D310008000000000000000009
:080190002D3100082D3100089B
:1001980010B5054C237833B9044B13B10448AFF3B9
:1001A80000800123237010BD7404002000000000AB
:1001B800D058000808B5034B1BB103490348AFF3F7
:1001C800008008BD0000000078040020D058000816
:1001D80053B94AB9002908BF00281CBF4FF0FF31A6
:1001E8004FF0FF3000F06EB9ADF1080C6DE904CEA8
:1001F80000F006F8DDF804E0DDE9022304B07047FA
:100208002DE9F047089D04468C46002B40F083807A
:100218008A42174647D9B2FA82F242B1C2F12000A7
:1002280024FA00F09140974040EA010C94404FEACC
:100238001748230CBCFBF8F61FFA87FE08FB16C10B
:1002480043EA014306FB0EF1994209D9FB1806F16E
:10025800FF3080F01981994240F21681023E3B44FA
:100268005B1AA4B2B3FBF8F008FB103344EA03446A
:1002780000FB0EFEA64509D93C1900F1FF3380F0BA
:100288000581A64540F2028102383C4440EA064016
:10029800A4EB0E0400261DB1D4400023C5E9004399
:1002A8003146BDE8F08702B9FFDEB2FA82F2002AD1
:1002B80050D1CB1B4FEA174E1FFA87F80126B3FB24
:1002C800FEFC210C0EFB1C3341EA034108FB0CF336
:1002D8008B4207D979180CF1FF3002D28B4200F219
:1002E800E9808446C91AA3B2B1FBFEF00EFB1011D7
:1002F80043EA014408FB00F8A04507D93C1900F17E
:10030800FF3302D2A04500F2D9801846A4EB0804B6
:1003180040EA0C40BFE78B4209D9002D00F0B180BC
:100328000026C5E9000130463146BDE8F087B3FA3A
:1003380083F6002E4AD18B4202D3824200F2B88063
:10034800841A61EB030101208C46002DA8D0C5E971
:10035800004CA5E7C2F1200320FA03F6974001FA02
:1003680002F04FEA174ED9403043030CB1FBFEF6BA
:100378001FFA87F80EFB161143EA014306FB08F142
:10038800994204FA02F409D9FB1806F1FF3C80F0FF
:100398008D80994240F28A80023E3B445B1A81B2CA
:1003A800B3FBFEF00EFB103341EA034100FB08F3F8
:1003B8008B4207D9791800F1FF3C73D28B4271D96F
:1003C80002383944CB1A40EA064678E7C6F1200CD1
:1003D80003FA06F422FA0CF31C4320FA0CF701FA8C
:1003E80006F34FEA144E21FA0CF11F433B0CB1FB04
:1003F800FEF91FFA84F80EFB191143EA014109FBC3
:1004080008FA8A4502FA06F200FA06F308D96118D2
:1004180009F1FF3048D28A4546D9A9F10209214499
:10042800A1EB0A01BFB2B1FBFEF00EFB101147EAC7
:10043800014700FB08F8B84507D9E71900F1FF3173
:100448002ED2B8452CD90238274440EA0940A7EBF8
:100458000807A0FB02894F45C64649461AD317D05C
:100468005DB1B3EB0E0267EB010707FA0CFCF24033
:100478004CEA0202F740C5E9002700263146BDE8EC
:10048800F0872E4628460BE70646E9E61846FDE6BD
:100498004345E5D2B8EB020E69EB04010138DFE70A
:1004A8000846D2E760468DE78146B9E7664675E7B4
:1004B80030464AE7ACF1020C394413E702383C44B1
:1004C80024E700BF704700BF00B583B0064A10702C
:1004D8000B7853706423009302239421101D01F0BC
:1004E8006BFB03B05DF804FB9004002070B582B08C
:1004F8000D460A4A144604F8040B642600960123A4
:100508009421204601F058FB009601232A469421A5
:10051800204601F00DFC02B070BD00BF9004002021
:1005280084B070B504AC84E80F009DF86460444B57
:10053800002283F840201A68D36943F48063D361AA
:10054800012210213F4801F037F83F4C542204A9FA
:10055800201D04F039FD0123637021460220FFF7B6
:10056800B3FF2546AF2305F8013F29460420FFF7CE
:10057800ABFF8023637029460520FFF7A5FF2146BE
:100588000620FFF7B3FF637803F0200343F0070367
:10059800637029460620FFF797FF29460820FFF7D2
:1005A800A5FF637803F0F00343F001036370294665
:1005B8000820FFF789FF29460920FFF797FF63788E
:1005C80003F0F00343F00103637029460920FFF7A5
:1005D8007BFF29460E20FFF789FF012E04D04EB974
:1005E800194B02225A7005E0637843F0C00303F008
:1005F800C7036370144D6C1C21460E20FFF764FF7F
:1006080021460F20FFF772FF00266E7021460F204B
:10061800FFF75AFF6E7021461420FFF755FF214659
:100628001520FFF751FF21461A20FFF74DFF2146FD
:100638001B20FFF749FFBDE8704004B0704700BFBA
:1006480080080020000C02409004002008B5032810
:1006580006D8DFE800F0020F13170C4BF0225A708F
:100668000A494B7843F00F0301F8013F0420FFF7D4
:100678002BFF08BD054BB0225A70F1E7034BE0226F
:100688005A70EDE7014BA0225A70E9E79004002068
:1006980038B50446A0F13203DBB25B00114D05F812
:1006A800013F29461420FFF70FFF29461520FFF7C1
:1006B8000BFF642C14D804EB44031B010A4C84FB85
:1006C80003235B09183BDBB2064C04F8013F2146C3
:1006D8002020FFF7F9FE21462120FFF7F5FE38BD5F
:1006E8001823F1E7900400201F85EB5138B5194D08
:1006F8002C46992304F8013F21460020FFF7E4FE29
:1007080080236B7021464720FFF7DEFE214632200A
:10071800FFF7ECFE6B7863F07F036B7021463220A5
:10072800FFF7D2FE21463220FFF7E0FE6B7803F098
:100738007F036B7021463220FFF7C6FE00206870E9
:100748002146FFF7C1FE9E236B7021460220FFF76A
:10075800BBFE38BD9004002030B58BB00024059452
:10076800069407940894099401941D4B1A6B42F05F
:1007780004021A631A6B02F004020192019A0294AD
:100788001A6B42F001021A631A6B02F0010202921C
:10079800029A03941A6B42F002021A631A6B02F06F
:1007A80002020392039A04941A6B42F008021A6335
:1007B8001B6B03F008030493049B0A4D2246102187
:1007C800284600F0F9FE10230593012306930794A9
:1007D800089405A9284600F01BFE0BB030BD00BFE9
:1007E80000380240000C024010B582B00024019489
:1007F8000D4B1A6B42F400121A631B6B03F40013BF
:100808000193019B224621460E2000F08FFB0E200B
:1008180000F0C0FB22462146102000F087FB102084
:1008280000F0B8FB02B010BD00380240034A13784C
:10083800034921F81300013313707047E8040020BE
:10084800C8080020034A5378591C5170024A32F8EC
:1008580013007047E8040020C8080020014B01225B
:100868009A707047E8040020014B02229A70704782
:10087800E8040020014B0122DA707047E8040020E8
:10088800014B0222DA707047E804002072B6FEE7D6
:1008980008B50C480C4B03604FF480734360102379
:1008A80083600323C360002303614BF680324261F7
:1008B8008361C361036201F0AFFB00B908BDFFF7B4
:1008C800E5FF00BF380800200038004008B5074899
:1008D800074B036000F082FB30B9044B1A68936839
:1008E80043F00103936008BDFFF7D0FF4C050020DB
:1008F8000030024008B50A480A4B03600A4B4360BF
:1009080000238360C3604FF48042026143618361C6
:10091800C361036201F072F800B908BDFFF7B6FFC2
:10092800F804002000540040A086010008B50B48D8
:100938000B4B03604FF40072426000238360032175
:10094800C16002614BF6803242618361C361036218
:1009580001F062FB00B908BDFFF798FF800800208E
:10096800003C004000B59BB0302200210EA804F0E6
:1009780039FB002309930A930B930C930D9303936C
:10098800049305930693079308930193264A116CE1
:1009980041F080511164126C02F080520192019A68
:1009A8000293224A116841F440411160126802F42E
:1009B80040420292029A02220E92012111911021C4
:1009C80012911492159308231693C02217920422A9
:1009D800189219930EA801F049FFF8B90F2309934B
:1009E80002230A9300230B934FF4A0530C934FF464
:1009F80080530D93032109A802F094F980B90123CB
:100A0800039332230593082304930223069303A830
:100A180002F04EFA30B91BB05DF804FBFFF736FF61
:100A2800FFF734FFFFF732FF003802400070004044
:100A380010B592B000F03CFAFFF794FFFFF78CFE78
:100A4800FFF7D2FEFFF724FFFFF740FFFFF752FF43
:100A5800FFF76CFF02F020FB434C00231193442264
:100A680004F11001684604F0AFFA94E80F00FFF7AC
:100A780057FD3C20FFF70CFE0320FFF7E7FDFFF7CB
:100A880035FE402239493A4801F094FB4022394961
:100A9800394801F0FDFB35E0384A3949354804F05A
:100AA8000FFA00240F2C06DC354B33F81400FFF73F
:100AB800BDFE0134F6E7334A137852789B1A802B2F
:100AC80002DD304B01221A712E4B0022DA701DE034
:100AD8002A4A2B492C4804F0F3F900240F2C06DC91
:100AE800274B33F81400FFF7A1FE0134F6E7254B36
:100AF8000022DA700EE0234B00229A70214B9B787B
:100B0800022B1CD01F4BDB78012BC5D01D4BDB788B
:100B1800022BDDD01B4B9B78012BEFD1194B1B7996
:100B2800012BE8D100243F2CE5DCFFF78BFE0F4BAF
:100B380023F81400A21C23F812000434F3E7114B25
:100B48001B79012B03D00F4B00229A70DAE740245F
:100B58007F2CF8DCFFF776FE044B23F81400A21C68
:100B680023F812000434F3E7F8040020B405002049
:100B78008008002034070020380800209C0B002043
:100B880014070020E8040020B407002000B583B053
:100B9800002100910C4B5A6C42F480425A645A6C02
:100BA80002F480420092009A01911A6C42F080523D
:100BB8001A641B6C03F080530193019B072000F01B
:100BC800A3F903B05DF804FB003802400268094B42
:100BD8009A4200D0704782B000230193064B1A6BEB
:100BE80042F480521A631B6B03F480530193019BF8
:100BF80002B07047003002400038024030B589B07A
:100C08000023039304930593069307930268154BF7
:100C18009A4201D009B030BD00250195124C236BD2
:100C280043F002032363236B03F002030193019B48
:100C38004FF41073039312230493012305930323A2
:100C480006930423079303A9084800F0E1FB0295E3
:100C5800236C43F400132364236C03F400130293FE
:100C6800029BD7E7005400400038024000040240CD
:100C7800F0B58DB0044600230793089309930A93AF
:100C88000B930368594A934204D0594A934256D069
:100C98000DB0F0BD00250195564B1A6C42F4804208
:100CA8001A641A6C02F480420192019A02951A6B36
:100CB80042F004021A631A6B02F004020292029ACA
:100CC80003951A6B42F002021A631B6B03F00203CE
:100CD8000393039B082307930227089709950A950E
:100CE80005260B9607A9444800F092FB4FF4A05341
:100CF8000793089709950A950B9607A93F4800F0AE
:100D080087FB3F483F4B036045608560C5604FF4F3
:100D1800806303614FF4006343614FF400538361C0
:100D28004FF48073C3610562456200F0E7F918B9B2
:100D3800334BE3639C63ABE7FFF7A8FDF8E70025B7
:100D480004952C4B1A6C42F400421A641A6C02F493
:100D580000420492049A05951A6B42F001021A6344
:100D68001A6B02F001020592059A06951A6B42F079
:100D780004021A631B6B03F004030693069B1023FB
:100D880007930227089709950A9506260B9607A93F
:100D98001D4800F03DFB4FF4A453079308970995AD
:100DA8000A950B9607A9144800F032FB1748184B10
:100DB8000360456040238360C5604FF4806303612E
:100DC8004FF4006343614FF4005383614FF4807321
:100DD800C3610562456200F091F918B90B4BA36332
:100DE8009C6355E7FFF752FDF8E700BF0038004065
:100DF800003C004000380240000802400004024065
:100E0800540500205860024000000240B40600204B
:100E180088600240FEE7FEE7FEE7FEE7FEE7704770
:100E28007047704708B500F05DF808BD08B502487E
:100E380000F000FA08BD00BF5405002008B50248BC
:100E480000F0F8F908BD00BFB4060020054BD3F840
:100E5800882042F47002C3F888204FF000629A603C
:100E6800704700BF00ED00E010B504460E4B18783F
:100E78004FF47A73B3FBF0F30C4A1068B0FBF3F04D
:100E880000F096F868B90F2C01D901200AE0002279
:100E980021464FF0FF3000F049F8034B5C6000201A
:100EA80000E0012010BD00BF040000200000002069
:100EB80008B50B4B1A6842F400721A601A6842F4BB
:100EC80080621A601A6842F480721A60032000F087
:100ED8001BF80020FFF7C8FFFFF758FE002008BDE9
:100EE800003C0240034A1168034B1B780B44136013
:100EF800704700BF900B002004000020014B1868C9
:100F0800704700BF900B0020074AD36823F4E063C2
:100F18001B041B0C000200F4E060034343F0BF63B2
:100F280043F40033D360704700ED00E030B4174B52
:100F3800DB68C3F30223C3F10704042C28BF04248D
:100F48001D1D062D18D9033B4FF0FF3505FA04F493
:100F580021EA0401994005FA03F322EA030319433D
:100F680000280BDB0901C9B200F1604000F56140BF
:100F780080F8001330BC70470023E5E700F00F004D
:100F88000901C9B2024B1954F4E700BF00ED00E0B3
:100F980014ED00E0002807DB00F01F0240090123E0
:100FA8009340024A42F82030704700BF00E100E059
:100FB8000138B0F1807F0AD2064B5860064AF0210A
:100FC80082F823100020986007221A6070470120D9
:100FD800704700BF10E000E000ED00E058B110B528
:100FE800044643791BB101236371002010BD0371CE
:100FF800FFF7ECFDF7E70120704730B405682C686F
:1010080024F480242C60046863608368402B05D036
:10101800036899600368DA6030BC704703689A60B7
:101028000368D960F8E7000010B40368D9B2103932
:101038000C4AA2FB014212090B4CA25CC2655F2953
:1010480009D923F47F7323F0030304338365806D88
:101058005DF8044B704723F47F7323F00303836523
:10106800F5E700BFABAAAAAA00590008836A8269FB
:1010780092B9012B0AD0022B02D00BB10020704785
:10108800C36A13F0807F28D100207047C36AB3F188
:10109800C07F24D000207047B2F5005F09D0022B32
:1010A80025D9032B25D1C36A13F0807F23D10020D3
:1010B8007047032B03D8DFE803F01404140A002058
:1010C8007047C36A13F0807F0DD100207047C36A50
:1010D800B3F1C07F09D0002070470120704701207C
:1010E8007047012070470120704701207047012098
:1010F80070470020704701207047000070B5044613
:10110800FFF7FCFE002C5BD00546002384F8343042
:10111800022384F835302268136823F00103136032
:1011280023681A6812F0010F0AD0FFF7E7FE431B85
:10113800052BF5D920236365032084F8350070BD9D
:101148001A68204810406168A2680A43E1680A43A7
:1011580021690A4361690A43A1690A43E1690A43AB
:10116800216A0A430243616A04291ED01A6026686C
:10117800756925F00705636A1D43042B07D1A36A27
:101188001D43E36A1BB12046FFF770FF90B97561F4
:101198002046FFF749FFE26D3F239340836000201C
:1011A8006065012384F83530C9E7E16A206B0143A3
:1011B8000A43DBE740236365012084F83500BEE776
:1011C8000120BCE73F8010F038B50446856D90F8E3
:1011D800340001282BD0012084F8340094F835001D
:1011E800C0B2012804D0002384F83430022038BD6E
:1011F800022084F83500002060652046FFF7FDFED8
:10120800E26D3F239340AB602268136843F01603F6
:101218001360236C23B12268136843F0080313603A
:101228002268136843F0010313600020DFE70220FF
:10123800DDE70000F0B583B0044600230193724B4C
:101248001D68724BA3FB0535AD0A876D3E68C26DFC
:1012580008239340334210D003681A6812F0040F31
:101268000BD01A6822F004021A60C26D082393405A
:10127800BB60436D43F001034365E26D0123934076
:10128800334209D02268526912F0800F04D0BB6043
:10129800636D43F002036365E26D042393403342B8
:1012A80009D02268126812F0020F04D0BB60636D87
:1012B80043F004036365E26D10239340334224D066
:1012C8002268126812F0080F1FD0BB6023681A68E2
:1012D80012F4802F0DD01B6813F4002F04D1236C57
:1012E8009BB12046984710E0A36C73B120469847FD
:1012F8000BE01A6812F4807F03D11A6822F0080202
:101308001A60236C0BB120469847E26D2023934066
:10131800334255D02268126812F0100F50D0BB60CB
:1013280094F83530DBB2052B0ED023681A6812F416
:10133800802F33D01B6813F4002F2AD1636C002B45
:101348003ED0204698473BE02268136823F01603F6
:1013580013602268536923F080035361236CA3B19F
:101368002268136823F008031360E26D3F2393405B
:10137800BB60002384F83430012384F83530236DB2
:10138800002B3FD0204698473CE0A36C002BE7D1C8
:10139800EBE7E36BA3B12046984711E01A6812F413
:1013A800807F09D11A6822F010021A60002384F89D
:1013B8003430012384F83530E36B0BB1204698476D
:1013C800636DFBB1636D13F0010F17D0052384F82B
:1013D80035302268136823F001031360019B013341
:1013E8000193AB4204D823681B6813F0010FF5D1B1
:1013F800002384F83430012384F83530E36C0BB1D2
:101408002046984703B0F0BD00000020B5814E1B70
:1014180000230F2B00F2C780F0B583B039E0042217
:1014280000E00022B2403A4302345F4E46F82420DE
:101438005E4A1468EA4324EA05064F6817F4803FB9
:1014480001D045EA0406594C2660646802EA04069D
:101458004F6817F4003F01D045EA0406534C666014
:10146800A46802EA04064F6817F4801F01D045EA11
:1014780004064E4CA660E46822404E6816F4001F2D
:1014880001D045EA0402494CE26001330F2B00F217
:10149800888001229A400C6804EA020532EA0404B2
:1014A800F3D14C68661E012E03D9112C01D0122CE1
:1014B80012D186685F000324BC4026EA0406CC6883
:1014C800BC4034438460466826EA02064C68C4F38C
:1014D80000129A4032434260C7685E000324B44059
:1014E800E24327EA04078C68B4403C43C4604C6874
:1014F800022C01D0122C13D1DF08083750F827E04E
:1015080003F007044FEA840C0F2404FA0CF42EEAC3
:10151800040E0C6904FA0CF444EA0E0440F827405F
:10152800046814404A6802F00302B2402243026091
:101538004A6812F0805FA8D0002201921C4A546CBD
:1015480044F480445464526C02F480420192019A3B
:101558009C08A61C144A52F8267003F00302960051
:101568000F22B24027EA0207124A90423FF459AFCD
:1015780002F5806290420ED002F5806290420CD053
:1015880002F5806290420AD002F5806290423FF4F0
:1015980046AF072246E7012244E7022242E7032238
:1015A80040E703B0F0BD704700380140003C0140FF
:1015B80000380240000002400AB181617047090406
:1015C8008161704703685A6912F4806F01D1002065
:1015D80070476FF480625A6100230363202280F809
:1015E8003D2080F83E30026C42F00402026480F82C
:1015F8003C30012070472DE9F04107460D469046E2
:101608001E4622E0FFF77AFC069BC01AB04200D8BB
:10161800DEB900233B63202287F83D2087F83E305F
:101628003A6C42F020023A6487F83C3001201AE014
:101638003B689C6925EA0404A4B2B4FA84F46409FA
:10164800A0450FD1B6F1FF3FDCD1C5F30743012B0D
:10165800EED13B685C6925EA0404A4B2B4FA84F4C8
:101668006409EDE70020BDE8F0812DE9F041054669
:101678000E46174698463DE01A6842F400721A6012
:101688002B686FF480625A6100232B63202285F84F
:101698003D2085F83E302A6C42F004022A6485F821
:1016A8003C30012034E0FFF729FCA0EB0800B842E9
:1016B80000D8FFB900232B63202285F83D2085F848
:1016C8003E302A6C42F020022A6485F83C30012022
:1016D8001EE02B689C6926EA0404A4B2003C18BFEB
:1016E8000124A4B12B685A6912F4806FC4D1B7F1F0
:1016F800FF3FD8D1C6F30743012BEAD12B685C69B9
:1017080026EA0404A4B2003C18BF0124E9E700203B
:10171800BDE8F081F0B583B004460D4616461F4675
:10172800C36A082B0DD0012B0BD013F5803F08D0CE
:10173800036B122B0AD10268136843F48073136099
:1017480004E02268136843F48073136000973346FB
:1017580000224FF001112046FFF74DFF80B92369A1
:10176800B3F5804F16D1236805F0FE051D613B4691
:10177800324613492046FFF778FFF8B903B0F0BDA9
:1017880023681B6813F4807F02D04FF4007323642E
:101798000320F3E7EB11226803F0060343F0F0039C
:1017A80013613B46324607492046FFF75EFF18B9EA
:1017B8002368EDB21D61DAE70120DFE70120DDE7EC
:1017C80002000100080001002DE9F04184B0044640
:1017D8000D4616461F46C26A01680B6843F48063CB
:1017E8000B60082A0DD0012A0BD012F5803F08D0D3
:1017F800036B112B0AD10268136843F480731360DA
:1018080004E02268136843F480731360009733463A
:1018180000224FF001112046FFF7EDFE98B9236929
:10182800B3F5804F19D1236845F00105EDB21D616C
:101838003B4632462A492046FFF717FF00284CD17D
:1018480004B0BDE8F08123681B6813F4807F02D0E0
:101858004FF4007323640320F2E74FEAE51808F019
:101868000608236848F0F0021A613B4632461D49D3
:101878002046FFF7FAFE08B10120E1E72368EDB240
:101888001D613B46324616492046FFF7EEFE08B179
:101898000120D5E7002203922368596903919969C9
:1018A80003910399196841F48071196000973346D0
:1018B8004FF001112046FFF79EFE20B9226848F03C
:1018C800F1031361B4E723681B6813F4807F02D027
:1018D8004FF4007323640320B2E70120B0E700BF90
:1018E800020001000800010070B504460D461646C6
:1018F80023685B6913F0800F1CD12046FFF762FE56
:10190800D0B9B5F1FF3FF3D0FFF7F8FA801BA84232
:1019180001D8002DECD100232363202284F83D2038
:1019280084F83E30226C42F02002226484F83C3075
:10193800012000E0002070BD0120FCE770B50446DE
:101948000D46164623685B6913F0040F1CD1204628
:10195800FFF738FED0B9B5F1FF3FF3D0FFF7CEFA65
:10196800801BA84201D8002DECD10023236320223C
:1019780084F83D2084F83E30226C42F02002226434
:1019880084F83C30012000E0002070BD0120FCE715
:1019980070B505460C4616462B68596911F0400F7C
:1019A80029D1596911F0100F15D1FFF7A7FA801B3B
:1019B800A04201D8002CEFD100232B63202285F808
:1019C8003D2085F83E302A6C42F020022A6485F8D2
:1019D8003C30012070BD6FF010025A6100232B6368
:1019E800202285F83D2085F83E302A6C2A6485F847
:1019F8003C300120EEE70020ECE70000002800F072
:101A0800CC80F8B5044690F83D30002B77D02423DD
:101A180084F83D302268136823F0010313602268BC
:101A2800136843F4004313602268136823F40043E7
:101A3800136001F02DFA62685A4B9A4264D85A4BE7
:101A480098428CBF00230123002B40F0A880574DFB
:101A5800A5FB0035AF0C2668716821F03F0141EA0B
:101A68009541716021680B6A23F03F0365684D4A10
:101A780095424FD87A1C13430B622568E96921F413
:101A88004F4121F0FF016368464A93424CD8013820
:101A98005B00B0FBF3F0013040F6FC73184278D0DD
:101AA800C0F30B030B43EB6121680B6823F0C00301
:101AB800E269206A024313430B6021688B6823F4B0
:101AC800034323F0FF032269E068024313438B605A
:101AD8002168CB6823F0FF036269A06902431343BE
:101AE800CB602268136843F0010313600020206470
:101AF800202384F83D30206384F83E00F8BD80F848
:101B08003C30FFF77BF882E7294B98428CBF0023D3
:101B1800012399E74FF4967202FB07F2254DA5FBC6
:101B2800025292090132A6E7A268BAB9461E03EB2F
:101B38004307B6FBF7F60136C6F30B06B6FA86F688
:101B4800760946BBC2B9421E03EB4303B2FBF3F26C
:101B58000132C2F30B0242F40043A3E7461E03EB33
:101B6800830707EB8707B6FBF7F60136C6F30B06C4
:101B7800B6FA86F67609E4E7421E03EB830303EB25
:101B88008303B2FBF3F20132C2F30B0242F4404387
:101B980088E7042386E7012384E7012070470120B2
:101BA800ACE700BFA08601007F841E0083DE1B43D4
:101BB800FF083D00D34D62102DE9F04385B004467F
:101BC8000F46914698460C9EFFF798F9054694F8FB
:101BD8003D00C0B2202804D00227384605B0BDE831
:101BE800F0830095192301224F492046FFF703FD92
:101BF800002840F0928094F83C30012B00F08F8050
:101C0800012384F83C3023681A6812F0010F03D1CD
:101C18001A6842F001021A602268136823F400630C
:101C28001360212384F83D30102384F83E300023CC
:101C38002364C4F82490A4F82A80638D23853B4B41
:101C4800E3622B46324639462046FFF763FD0746D6
:101C5800002866D10023039323685A6903929B697D
:101C68000393039B11E0236C042B01D00127B4E7F5
:101C78002268136843F400731360F7E72A46314675
:101C88002046FFF75BFE00282ED1238D002B36D08F
:101C98002A4631462046FFF727FE0028E3D1626A2C
:101CA800236812781A61616A4B1C6362638D9BB268
:101CB800013B9BB26385238D013B9BB22385226840
:101CC800506910F0040FD9D0002BD7D04B7813618E
:101CD800636A01336362638D9BB2013B9BB2638588
:101CE800238D013B2385C9E7236C042B01D00127F1
:101CF80073E72268136843F400731360F7E72268F8
:101D0800136843F400731360202384F83D300023E4
:101D180084F83E3084F83C305FE702275DE702270D
:101D28005BE7012759E700BF020010000000FFFF32
:101D38002DE9F04387B004460F46914698460E9E1B
:101D4800FFF7DCF8054694F83D00C0B2202804D01F
:101D58000227384607B0BDE8F08300951923012211
:101D68009E492046FFF747FC002840F0468194F83A
:101D78003C30012B00F04381012384F83C30236878
:101D88001A6812F0010F03D11A6842F001021A60B2
:101D98002268136823F400631360222384F83D301B
:101DA800102384F83E3000232364C4F82490A4F858
:101DB8002A80638D23858A4BE3622B463246394657
:101DC8002046FFF701FD0746002840F01A81238DC1
:101DD8005BB9029323685A6902929A690292029A3D
:101DE8001A6842F400721A609DE0012B0FD0022B92
:101DF8001FD02268136843F480631360002305939F
:101E080023685A6905929B690593059B8BE02268B4
:101E1800136823F4806313600023039323685A69CB
:101E280003929A690392039A1A6842F400721A603C
:101E380079E02268136823F48063136022681368CA
:101E480043F4006313600023049323685A690492DF
:101E58009B690493049B66E02A4631462046FFF7B7
:101E680097FD002840F0CF8023681A69636A1A70CA
:101E7800636A01336362238D013B2385638D9BB2C3
:101E8800013B9BB263854EE00095334600225549DD
:101E98002046FFF7B0FB002840F0B780226813689F
:101EA80043F40073136023681A69636A1A70626ADC
:101EB800531C6362238D013B2385638D9BB2013BD9
:101EC8009BB2638523681B695370636A013363623D
:101ED800238D013B2385638D9BB2013B9BB26385B8
:101EE80021E02268136843F40073136023681A69B9
:101EF800636A1A70626A531C6362238D013B2385EF
:101F0800638D9BB2013B9BB2638523681B69537049
:101F1800636A01336362238D013B2385638D9BB222
:101F2800013B9BB26385238D002B5DD0032B2BD8FF
:101F3800012B91D0022BA7D00095334600222949C6
:101F48002046FFF758FB002861D12268136823F464
:101F58008063136023681A69636A1A70636A0133BD
:101F68006362238D013B2385638D9BB2013B9BB24A
:101F780063850095334600221A492046FFF73BFB4C
:101F88000028AED00127E4E62A4631462046FFF76E
:101F9800FFFC00283DD123681A69636A1A70626AD7
:101FA800531C6362238D013B2385638D9BB2013BE8
:101FB8009BB263852368596911F0040FB3D01B697C
:101FC8005370636A01336362238D013B2385638DFC
:101FD8009BB2013B9BB26385A5E700BF02001000DE
:101FE8000000FFFF04000100202384F83D30002397
:101FF80084F83E3084F83C30ABE60227A9E6022795
:10200800A7E60127A5E60127A3E60127A1E6012700
:102018009FE601279DE600BF002800F0BF8070B54D
:10202800044690F84130002B51D0022284F8412018
:102038002168CB6923F47B6323F00F03CB6123680A
:102048001A626369934263D0E368002B46D1102576
:10205800A368202B00D86D00012000F0E1FF236960
:10206800B3F5007F3CD0B0FBF5F000EB80004300F7
:102078006069B3FBF0F30533494AA2FB0323C3F3BA
:10208800C002C2EBD3035B0811029A1EFD2A41D895
:1020980022690A43216813430B622168CB6923F440
:1020A8007B6323F00F036268A0680243E068024381
:1020B800A0690243134343F40063CB61236A012BF5
:1020C8002ED000206064012384F8413070BD80F870
:1020D8004030344B4363FEF7CBFDA6E72025B7E736
:1020E800E36853B1AD00B0FBF5F000EB80004300AE
:1020F8006069B3FBF0F30533BEE7ED00B0FBF5F024
:1021080000EB800043006069B3FBF0F30533B3E7ED
:102118000021BAE7636C43F0100363640120D5E73C
:10212800214B63632268214B9A421FD04FF0402213
:10213800D36923F47B6323F00F03D36122681B4B1D
:102148009A4215D04FF0402302221A622268174B98
:102158009A4210D04FF04021CA6992B26368B3F531
:10216800007F0AD0C3B94FF4807608E0104ADFE751
:10217800A3F58063E8E70E49EEE74FF48076A068A0
:10218800E568238B2B439BB203439BB23343134332
:1021980043F40063CB6194E70026F0E70120704721
:1021A800CDCCCCCC632400089D2600080038004024
:1021B8000034004000295ED038B50446002A5CD0BF
:1021C80094F84030DBB2012B59D0012384F8403019
:1021D80094F84150EDB29D4210D1032384F8413068
:1021E8000023636461622368DB6903F00703032B40
:1021F80009D0052B07D02285628508E0002384F8E2
:10220800403002203AE0520092B222856285A36BE8
:102218001C4A1A64A36B1C4ADA63A36B1B4ADA6470
:102228002268238D9BB20C32616AA06BFEF7CCFF4B
:10223800A8B92368DA6912F4806F03D1DA6942F425
:102248008062DA6123685A6812F0020F03D15A6873
:1022580042F002025A60002384F840300EE0636CBA
:1022680043F008036364012384F84130002384F8B1
:102278004030284602E001207047012038BD022086
:10228800FCE700BF95230008D72300083325000882
:1022980000296DD030B583B00446002A6AD094F87E
:1022A8004030DBB2012B68D0012384F8403094F829
:1022B8004150EDB29D4210D1042384F841300023EF
:1022C8006364E1622368DB6903F00703032B09D029
:1022D800052B07D02286628608E0002384F8403068
:1022E800022048E0520092B222866286E36B244ABA
:1022F8001A64E36B234ADA63E36B234ADA642168DE
:10230800CB6903F44073B3F5407F1DD0238E9BB295
:10231800E26A0C31E06BFEF757FFE8B92368DA6927
:1023280012F4806F03D1DA6942F48062DA612368BB
:102338005A6812F0010F03D15A6842F001025A603C
:10234800002384F8403016E000230193CB68019302
:102358008B680193019BD9E7636C43F008036364BE
:10236800012384F84130002384F84030284602E0F5
:1023780001207047012003B030BD0220FBE700BFF9
:10238800FB2300083D2400083325000808B5806BAE
:10239800FEF764FA08BD08B5426A03681288DA6075
:1023A800436A02334362438D9BB2013B9BB2438530
:1023B800438D9BB203B108BD0268536823F0A003A4
:1023C8005360012380F84130FEF74EFAF3E708B571
:1023D8000346806BDB694BB90268536823F002033C
:1023E800536000234385012380F84130FEF73CFA0F
:1023F80008BD08B5806BFEF73DFA08BD08B503684F
:10240800DA68C36A1A80C36A0233C362438E9BB216
:10241800013B9BB24386438E9BB203B108BD026861
:10242800536823F060035360012380F84130FEF7BE
:1024380027FAF3E708B50346806BDB694BB90268F6
:10244800536823F00103536000234386012380F877
:102458004130FEF715FA08BD704710B584B0044640
:1024680002689368039390F84130DBB2042B06D0DE
:1024780094F84130DBB2032B2CD004B010BD039B81
:1024880013F0010F03D0536813F0400F1FD1039BC3
:1024980013F0400FECD023685A6812F0200FE7D0F1
:1024A8005A6822F060025A60002301932368DA68B0
:1024B80001929B680193019B012384F84130636C6E
:1024C80043F0020363642046FFF7C6FFD0E7FFF737
:1024D80095FFDCE7039B13F0020F04D023685B68C9
:1024E80013F0800F1DD1039B13F0080FC5D023688C
:1024F8005A6812F0200FC0D05A6822F0A0025A6021
:102508000023029323689B680293029B012384F8AB
:102518004130636C43F0040363642046FFF79CFF7B
:10252800ABE72046FFF737FFDDE708B5806B0268A9
:10253800536823F003035360002343854386012334
:1025480080F84130436C43F008034364FFF784FF8D
:1025580008BD704708B5436A9A1C426202681B8826
:10256800D360438D9BB2013B9BB24385438D9BB2A5
:102578003BB90268536823F0A0035360438E9BB2B3
:1025880003B108BD012380F84130FFF7E2FFF8E707
:1025980008B50268154B9A421CD04FF04023DA6800
:1025A800C36A991CC1621A80438E9BB2013B9BB2DD
:1025B8004386438E9BB263B902680C4B9A420CD097
:1025C8004FF04022536823F060035360438D9BB261
:1025D8002BB108BDA3F58063E1E7054AF2E70123C3
:1025E80080F84130FFF7B5FFF3E700BF003800403F
:1025F8000034004008B5436A9A1C42621A88016890
:10260800134B994218D04FF04023DA60438D9BB2A8
:10261800013B9BB24385438D9BB263B902680C4B67
:102628009A420CD04FF04022536823F0A003536025
:10263800438E9BB22BB108BDA3F58063E5E7054A3D
:10264800F2E7012380F84130FFF783FFF3E700BF8B
:10265800003800400034004008B50368DA68C36AEF
:10266800991CC1621A80438E9BB2013B9BB2438680
:10267800438E9BB23BB90268536823F060035360F2
:10268800438D9BB203B108BD012380F84130FFF7A9
:1026980060FFF8E710B586B0044603689A680592AB
:1026A800704A93426FD04FF04022916804915B6862
:1026B8000393536802936368B3F5007F01D0002B3E
:1026C80070D1059B13F0020F03D0039B13F0800F0A
:1026D8005CD1049B13F0010F03D0029B13F0400F51
:1026E80058D1049B13F0400F24D0029B13F0200F05
:1026F80020D022685B4B9A4250D04FF0402253685A
:1027080023F0600353602268536823F0A0035360EA
:10271800002300932368DA6800929B680093009B6B
:10272800012384F84130636C43F00203636420465C
:10273800FFF792FE059B13F0080F22D0039B13F0BE
:10274800200F1ED02268536823F0A003536022682C
:10275800444B9A4224D04FF04022536823F0600340
:1027680053600023019323689B680193019B012315
:1027780084F84130636C43F0040363642046FFF738
:102788006BFE06B010BDA2F580628EE72046FFF70B
:10279800E1FE9EE72046FFF7FBFEA2E7324AAEE7DE
:1027A800314ADAE7049B13F0020F03D0029B13F0BF
:1027B800800F4AD1059B13F0010F03D0039B13F040
:1027C800400F46D1059B13F0400F1CD0039B13F01C
:1027D800200F18D02268536823F0600353602268E2
:1027E800204B9A4239D04FF04022536823F0A0037F
:1027F8005360012384F84130636C43F0020363643F
:102808002046FFF729FE049B13F0080FB9D0029B5E
:1028180013F0200FB5D02268124B9A421FD04FF008
:102828004022536823F0A00353602268536823F0C2
:1028380060035360012384F84130636C43F0040360
:1028480063642046FFF708FE9BE72046FFF7D2FEA9
:10285800B0E72046FFF700FFB4E7034AC5E7024A9E
:10286800DFE700BF0038004000340040002800F0D7
:10287800D98170B582B00446036813F0010F3BD0CC
:10288800A64B9B6803F00C03042B2CD0A34B9B682E
:1028980003F00C03082B21D06368B3F5803F4FD0B9
:1028A800B3F5A02F52D09D4B1A6822F480321A60DB
:1028B8001A6822F480221A606368002B50D0FEF751
:1028C8001DFB0546954B1B6813F4003F14D1FEF71A
:1028D80015FB401B6428F5D90320AAE18F4B5B68E0
:1028E80013F4800FD8D08D4B1B6813F4003F03D02E
:1028F8006368002B00F09881236813F0020F54D00E
:10290800864B9B6813F00C0F3ED0844B9B6803F0FA
:102918000C03082B33D0E368002B67D0804B0122CF
:102928001A60FEF7EBFA05467C4B1B6813F0020FA2
:1029380053D1FEF7E3FA401B0228F5D9032078E1CA
:10294800764A136843F480331360B5E7734B1A680B
:1029580042F480221A601A6842F480321A60ABE7A7
:10296800FEF7CCFA05466D4B1B6813F4003FC3D045
:10297800FEF7C4FA401B6428F5D9032059E1674BD8
:102988005B6813F4800FC6D1644B1B6813F0020F09
:1029980003D0E368012B40F04981604A136823F0B3
:1029A800F803216943EAC1031360236813F0080F91
:1029B80040D0636963B35B4B01221A60FEF79EFA4D
:1029C8000546564B5B6F13F0020F33D1FEF796FAAC
:1029D800401B0228F5D903202BE1504A136823F045
:1029E800F803216943EAC1031360DEE74C4B002278
:1029F8001A60FEF783FA0546484B1B6813F0020F6E
:102A0800D3D0FEF77BFA401B0228F5D9032010E14A
:102A1800444B00221A60FEF771FA05463F4B5B6F84
:102A280013F0020F06D0FEF769FA401B0228F5D909
:102A38000320FEE0236813F0040F78D0374B1B6C9B
:102A480013F0805F0DD100230193344B1A6C42F0D0
:102A580080521A641B6C03F080530193019B01257B
:102A680000E00025304B1B6813F4807F21D0A36859
:102A7800012B32D0052B36D0284B1A6F22F00102D9
:102A88001A671A6F22F004021A67A368002B34D061
:102A9800FEF734FA0646214B1B6F13F0020F45D19F
:102AA800FEF72CFA801B41F288339842F3D90320B1
:102AB800BFE01D4A136843F480731360FEF71EFAE3
:102AC8000646194B1B6813F4807FD0D1FEF716FA1F
:102AD800801B0228F5D90320ABE0104A136F43F09E
:102AE80001031367D1E70D4B1A6F42F004021A670E
:102AF8001A6F42F001021A67C7E7FEF7FFF90646A8
:102B0800064B1B6F13F0020F10D0FEF7F7F9801B6E
:102B180041F288339842F3D903208AE00038024012
:102B280000004742800E474200700040E5B9A369A3
:102B3800002B7DD0464A926802F00C02082A51D038
:102B4800022B17D0434B00221A60FEF7D7F9044630
:102B58003F4B1B6813F0007F42D0FEF7CFF9001BF4
:102B68000228F5D9032064E0394A136C23F0805316
:102B78001364DCE7374B00221A60FEF7BFF90546FD
:102B8800334B1B6813F0007F06D0FEF7B7F9401BE4
:102B98000228F5D903204CE0E369226A1343626AEC
:102BA80043EA8213A26A5208013A43EA0243E26AFC
:102BB80043EA0263264A5360264B01221A60FEF755
:102BC8009DF90446224B1B6813F0007F06D1FEF7DF
:102BD80095F9001B0228F5D903202AE0002028E0F7
:102BE800002026E0012B26D0194B5B6803F48001F6
:102BF800E269914221D103F03F02216A8A421ED143
:102C0800616A47F6C0721A408A421AD103F4403208
:102C1800A16A8A4217D103F07063E26A934214D121
:102C2800002006E001207047012002E0012000E0BA
:102C3800002002B070BD0120FBE70120F9E7012068
:102C4800F7E70120F5E70120F3E70120F1E700BFEE
:102C58000038024060004742F8B52F4B9B6803F0EC
:102C68000C03042B53D0082B53D12B4B5A6802F07A
:102C78003F025B6813F4800F28D0274B5B68C3F3CF
:102C8800881358010021C01A61F100018E0146EA3B
:102C9800906687013C1A66EB0105E90041EA547128
:102CA800E000C01841F100014B0243EAD05344024E
:102CB800204619460023FDF78BFA174B5B68C3F3D0
:102CC800014301335B00B0FBF3F023E0124B5B6878
:102CD800C3F388135C010025E41A65F10005AE0111
:102CE80046EA9466A701381B66EB0501CC0044EA66
:102CF8005074C500E81844F100018B0243EA905370
:102D08008402204619460023FDF762FAD5E70348F6
:102D180000E00348F8BD00BF0038024000127A0006
:102D28000024F400002800F09B8070B50D4604468E
:102D38004F4B1B6803F00F038B4208D2CBB24C4AAF
:102D48001370136803F00F038B4240F08B802368E5
:102D580013F0020F17D013F0040F04D0454A9368FC
:102D680043F4E0539360236813F0080F04D0414AFA
:102D7800936843F4604393603E4A936823F0F003FA
:102D8800A1680B439360236813F0010F32D0636886
:102D9800012B21D09A1E012A25D9364A126812F031
:102DA800020F61D033498A6822F0030213438B6013
:102DB800FEF7A4F806462F4B9B6803F00C036268E5
:102DC800B3EB820F16D0FEF799F8801B41F28833D7
:102DD8009842F0D9032042E0264A126812F4003FD4
:102DE800E0D101203BE0234A126812F0007FD9D1DC
:102DF800012034E01E4B1B6803F00F03AB4207D9D8
:102E0800EAB21B4B1A701B6803F00F03AB422DD1BB
:102E1800236813F0040F06D0164A936823F4E0538E
:102E2800E1680B439360236813F0080F07D0114A39
:102E3800936823F46043216943EAC1039360FFF771
:102E48000BFF0C4B9B68C3F303130B4AD35CD840AE
:102E58000A4B18600A4B1868FEF706F8002070BD88
:102E6800012070470120FAE70120F8E70120F6E782
:102E7800003C024000380240E858000800000020EA
:102E880008000020014B1868704700BF00000020B0
:102E980008B5FFF7F7FF044B9B68C3F38223034A87
:102EA800D35CD84008BD00BF00380240F85800087D
:102EB80030B583B00446036813F0050F0ED12368BC
:102EC80013F0020F38D1236813F0080F00F09B802D
:102ED800227D4E4B1A60002003B030BD4C4B0022BF
:102EE8001A60FEF70BF805464A4B1B6813F0006F93
:102EF80006D0FEF703F8431B022BF5D90320EBE7B6
:102F08006368A26843EA8213E26843EA0273414AAB
:102F1800C2F884303E4B01221A60FDF7EFFF0546E8
:102F28003C4B1B6813F0006FC9D1FDF7E7FF401B4E
:102F38000228F5D90320CFE700230193354B1A6CFB
:102F480042F080521A641B6C03F080530193019B7A
:102F5800314A136843F480731360FDF7CFFF0546C9
:102F68002D4B1B6813F4807F06D1FDF7C7FF431B69
:102F7800022BF5D90320AFE7264B1B6F13F44073E0
:102F880012D0226902F440729A420DD0214B1A6F76
:102F980022F44072214901200860002008601A6765
:102FA8001B6F13F0010F12D1236903F44072B2F5BD
:102FB800407F1DD0174A936823F4F813936015498E
:102FC8000B6F2269C2F30B0213430B677BE7FDF714
:102FD80095FF05460F4B1B6F13F0020FE4D1FDF769
:102FE8008DFF401B41F288339842F3D9032073E7E1
:102FF80008498A6822F4F81223F0704323F44073D6
:1030080013438B60DBE7002066E700BFE01147420F
:10301800680047420038024000700040400E4742B6
:10302800012801D000207047174B9B6813F4000358
:1030380003D0012B25D115487047134B5B6813F457
:10304800800F15D0104BD3F8843003F03F0310489D
:10305800B0FBF3F00C4AD2F88430C3F3881300FBBA
:1030680003F0D2F88430C3F30273B0FBF3F0704777
:10307800054BD3F8843003F03F030648B0FBF3F068
:10308800E8E70020704700BF003802400080BB001E
:1030980000127A000024F40038B50B4C0025258076
:1030A80001236380094A626023816381204601F01D
:1030B8008BFD074902230B8010234B808D8020460F
:1030C80001F00CFE38BD00BF9C0B0020D6A3707D1C
:1030D800940B0020DFF834D0002103E00C4B5B5840
:1030E800435004310B480C4B42189A42F6D30B4A12
:1030F80002E0002342F8043B094B9A42F9D3FDF75A
:10310800A5FE01F03DFFFDF793FC7047000002208B
:103118007459000800000020740400207404002082
:10312800E80B0020FEE700002DE9F04F89B0D468D5
:10313800D58C93690794146B06930294D2F810A067
:10314800D2F814B0D3699668546B0391002D66D0F9
:1031580004F0100504F020040495384905944FF054
:10316800000E35464FE0875D047800EB460004EB1F
:103178000724E6B2C4F3072451F8266051F8244026
:10318800334404EB9324C4F30906C3F3090346EA62
:103198000346A30A2A4C26FB04542A4D26FB05F5B0
:1031A800A4F5006404EB0A08A8EB0B084646F717D9
:1031B800CDE90067049E0EF1010C6EB1166A019FFD
:1031C800A8FB068906FB079918F1004849F1000990
:1031D8004FEA490AA3465446168D029F24044FF02D
:1031E80000484FF000090EFB06FEC7FB0489039E4A
:1031F8004F46BC1004F30F0426F81E40D48C1FFA67
:103208008CFE74450AD9548D012CE6B2ABD1059ECB
:1032180050F8024B002EACD064BAAAE72E460799A4
:10322800D361069B96600020D160C2F810A0C2F856
:1032380014B0936109B0BDE8F08F00BF0C00002006
:1032480001000300030001002DE9F04FD68C9369BB
:10325800156BD2F810A0D2F814909468D2F80CB07C
:1032680089B007930395D369556B0491002E00F03C
:10327800968005F0100605F0200554490596069538
:103288004FF0000ECDF808906AE010F8165010F8CC
:10329800078090F800C02D0400EB460005EB0825D8
:1032A800AC4438445FFA8CF6CCF3072551F8266015
:1032B80051F825704FEA1C4C06EB932607EB96272E
:1032C80051F82C30C7F30905C6F3090645EA064646
:1032D80003EB97233E4D26FB05B73E4D26FB054BDA
:1032E800C3F3090404EB44080BEB480B012426FB49
:1032F80004F6A7F5D855029F0EEB040C08EB06045C
:1033080005EB0A06F61B37464FEAE678CDE9007862
:10331800059F77B1D2F820800295A6FB089A019EF6
:1033280008FB06AA19F100464AF100074FEA470AC6
:103338005546168D039FAD034FF000484FF0000926
:103348000EFB06FEC7FB0589049E4F46BD1005F31C
:103358000F0526F81E50D58C1FFA8CFE75451CD912
:10336800558DEFB2012D3EB28FD1069D5DB11EF095
:10337800010F22D10578C77846782D0205EB074C56
:10338800B44402308EE7467890F802C010F8035B28
:10339800360206EB0C4CAC4484E7DDF80890D361A8
:1033A800079B94600020C2F80CB0C2F810A0C2F8C5
:1033B8001490936109B0BDE8F08FC578877810F84C
:1033C800046B2D0205EB074CB4446BE70C0000209E
:1033D80001000300070006002DE9F04FD58C936922
:1033E800146BD2F810A0D2F81490D669D2F80CB0A9
:1033F80089B0079303949368546B0491002D00F0EF
:103408009F8004F0100504F02004059553490694A4
:103418004FF0000CCDF808901D46174677E018F8D5
:10342800033010F80E8010F802E000781B0403EB5C
:10343800086303EB0E23034404EB4200DCB2C3F33E
:103448000722C3F3074851F8244051F822201B0EE5
:1034580004EB962451F8286051F8233002EB9422AB
:1034680006EB922E03EB9E26C6F30903C4F3090468
:10347800C2F30902CEF3090E43EA0E4E42EA0442B1
:10348800374B22FB03B44FF480332EFB0348354BF4
:1034980022FB0355344B2EFB035B012322FB03F273
:1034A800324B2EFB0325029BA8F5804404EB0A0847
:1034B800A8EB03084246D317CDE90023059B0CF17E
:1034C800010E6BB13A6A019B0294A8FB028902FBC8
:1034D800039918F1004849F100094FEA490A54468E
:1034E8003B8D049A0CFB03FC039B64034FF00048DC
:1034F8004FF00009C3FB04894B469B1003F30F03ED
:1035080022F81C30FB8C1FFA8EFC634514D97C8D85
:10351800E2B202EB420E00EB0E085342012C08EB1C
:1035280003047FF47CAF021D0368069810B15BBAF0
:10353800104683E7104681E7DDF808902B463A46A7
:103548009360079BC2F80CB00020D661C2F810A0A7
:10355800C2F81490936109B0BDE8F08F0C00002008
:10356800030006000C000A000A000C000600030015
:103578002DE9F04F89B05369D468D58C0293009433
:103588009369146B07930394D2F810A0D6699368D3
:10359800546B0491002D00F0C58004F0100504F070
:1035A80020046749059506944FF0000C574601938F
:1035B8009CE01BF8054010F809B01AF8099010F8BB
:1035C8000EA00078240404EB0B6B18F805400BEBF5
:1035D8000A2BA84404EB09240BEB000508EB4E006A
:1035E8005FFA85F8C5F3072E51F828A051F82E90F8
:1035F800C5F3074E2D0E0AEB962A51F82E8051F886
:1036080025E0E6B209EB9A25C4F3072408EB9528D0
:1036180051F8266051F824900EEB982406EB942E6E
:1036280009EB9E26C5F30905C4F30904C6F3090985
:10363800CAF3090AC8F30908CEF3090E45EA0A4A8B
:1036480044EA084849EA0E4E3E4C009D2AFB0454C1
:103658003D4D28FB05444FF480332EFB034B3B4C78
:10366800019B2AFB04334FF01B1428FB0433384C0E
:103678002EFB0433012500932AFB05FA354B28FB62
:1036880003A8354B2EFB0383ABF558440193029BEB
:1036980004EB0708A8EB0308059B65444FEAE87BA1
:1036A80063B1176A0294A8FB078907FB0B9918F105
:1036B800004849F100094FEA49073C46B2F828E0BA
:1036C800039BE4024FF000484FF000090CFB0EFC8E
:1036D800C3FB0489049B4FEAA90404F30F0423F8ED
:1036E8001C40D48C1FFA85FC644519D9548D5FFAA7
:1036F80084FE0EEB4E09CEF1000500EB090B0BEB37
:10370800050A012C0AEB09087FF453AF069B0568EC
:1037180044680630002B3FF463AF6DBA64BA5FE7C4
:10372800019BBA469360009BD360029B5361079B41
:10373800D6610020C2F810A0936109B0BDE8F08FEF
:103748000C0000200A000F000300060019001500F5
:1037580015001900060003000F000A002DE9F04FBC
:1037680089B013699568039301955369D568D48C1A
:10377800049300959369156B07930595D369069192
:10378800002C00F0D980116A0291DFF8ECE14FF0CB
:10379800000C8146C1E006EB4608744209EB0807B5
:1037A80007EB440A0AEB4805385D295D1AF818B09A
:1037B80019F808A017F8148099F8007015F81490F3
:1037C80025440904000401EB0B6100EB0A6015F8BD
:1037D80014B001EB092105EB440400EB082059441F
:1037E80004EB86093844C5B2C0F307245EF82560A7
:1037F8005EF82450C0F30744000E03EB06085EF899
:1038080024705EF82040C1F30723C8B205EB982561
:1038180007EB95275EF820605EF82300C1F30743A5
:1038280004EB9724090E06EB94265EF823305EF825
:10383800211000EB962003EB902A01EB9A21CAF3A2
:103848000903C5F30905C4F30904C6F30906C1F35E
:10385800090AC8F30908C7F30907C0F3090044EACD
:1038680007474AEA034A45EA08488B0A40EA0640FD
:103878003949009C28FB0141384C27FB0411384C7E
:1038880020FB04114FF480362AFB0611354C019DAC
:1038980028FB0454334D2AFB1544334D27FB0544BC
:1038A80020FB15440125009428FB05F82F4C27FB25
:1038B80004872F4C20FB04702E4C2AFB0400A1F532
:1038C80000360299019089B10398049C049630440B
:1038D800001BC5170F46A0FB010107FB051110F1DE
:1038E800004041F10001490003910E46148D0599ED
:1038F8000698B6024FF000474FF000080CFB04F49E
:10390800C1FB06784146891001F30F0120F8141015
:10391800D18C0CF1010C61450EDD568D012E7FF422
:103928003AAF566BB40699E8030009F108097FF528
:103938005AAF40BA49BA56E7D361039B019913615C
:10394800049B916053610099079BD16000209361AB
:1039580009B0BDE8F08F00BF15001C000A000F0079
:10396800030006002A00240030002E000600030091
:103978000F000A001C0015000C0000202DE9F04F74
:103988008BB01469049454690594946909949468F3
:103998000294D38CD4680194146BD2F81CB00694AA
:1039A8000791002B00F00F81136A089300230092FF
:1039B800DFF86492CDF80CB01A46EDE05FFA8CFCA3
:1039C8000FFA8CF4660006EB0408CCF1000500EB56
:1039D800080104EB84044B19495D10F808A013F89A
:1039E80004B010F80CC090F8008003EB040E0EEB46
:1039F800050709041EF805301EF815E001EB0A61F9
:103A080007EB450A0AEB04001B041AF804A017F890
:103A18001570445D03EB0B6301EB0C21284403EBA9
:103A28000E234144304404EB0A241F44CDB2C1F3B1
:103A3800072359F8256059F823E0039BC1F307458C
:103A4800090E334459F8258059F82160FDB20EEB70
:103A580093219B46C7F3072308EB912859F825C003
:103A680059F82350C7F3074E06EB98263B0E0CEB8C
:103A7800962C59F82E7059F823305FFA84FE05EB1E
:103A88009C25C4F3072407EB952759F82EE059F82D
:103A9800244003EB97230EEB932E04EB9E24C1F3F3
:103AA8000901C3F30903CBF3090BC7F30907C6F3ED
:103AB8000906C5F3090541EA0B4B43EA0747C4F376
:103AC8000901A30AC8F30908CCF3090CCEF3090EBF
:103AD80041EA0E4E039346EA084845EA0C4C424B2D
:103AE80001992BFB0313414928FB013340492CFB67
:103AF8000133404927FB01334FF480312EFB01335A
:103B08003D49029C2BFB01443C4928FB01444FF0F2
:103B18004B112CFB01413A4C27FB0411394C2EFB6D
:103B28000411019101212BFB01FB374928FB01B846
:103B3800364D2CFB058C364D27FB05C7354D2EFB26
:103B4800057102910899A3F57A3381B1049C059D0A
:103B580005931C44641BE717A4FB014501FB0755AB
:103B680014F1004445F10005690004910B46009EDC
:103B7800069F318D5B024FF00044002502FB01F1E6
:103B8800C7FB0345079CAB1003F30F0324F8113060
:103B9800F38C0132934213DD009BB3F82AC0BCF1C9
:103BA800010F7FF40BAF5B6B84689B0690E8820083
:103BB80000F10A007FF53AAF49BA7FBA64BA35E72F
:103BC800DDF80CB03246029B9360019BD360049BE6
:103BD8001361059B5361099BC2F81CB000209361D7
:103BE8000BB0BDE8F08F00BF24002D0015001C00AD
:103BF8000A000F00030006003F0037004900450097
:103C08004500490037003F00060003000F000A0086
:103C18001C0015002D0024000C0000202DE9F04F99
:103C280093B0D38C05901046019212690C9202460B
:103C380040690D901046144692691192C269029229
:103C4800E26880680392226B04900E920F91002B19
:103C580000F09B81236A10930023DFF8A893069352
:103C68007AE1D2B2059D14B204EB440A504205EB46
:103C78000A014FEA840B01EB00080BEB040C08EB7C
:103C88000C073B18C4EBC40403EB400E0EEB040610
:103C98000793331805932B4615F80AA0CDF820A0F2
:103CA80018F80CA013F802C01EF804803A5C17F844
:103CB80010E01F78079B059D13F81030095C0997E1
:103CC800079316F81070335C120405EB400602EBFC
:103CD8000A62089D06EB040A090401EB05611AF85B
:103CE8000050365D059C2D0405EB066601EB0C21A2
:103CF8001AF8105014F810400AEB000C1B0403EBE0
:103D0800086306EB05261CF810A0079D03EB0723A4
:103D18000CEB4000099F584402EB0E2205903944F1
:103D28002A44B2441819CBB2C1F30724029E59F8A9
:103D3800233059F82450C1F307441E44090E334672
:103D480059F8246059F82170D4B205EB9325C2F3D1
:103D5800072106EB952B59F8246059F82110C2F376
:103D68000744120E07EB9B2706EB972859F82460A7
:103D780059F822400297C2B201EB982106EB912C28
:103D880059F8226004EB9C24C0F3072206EB942E1A
:103D9800C0F3074659F8222059F82670000E5FFA3A
:103DA8008AF6C3F30903099359F8200059F82660E5
:103DB80002EB9E22CAF30723C5F309050A9507EB10
:103DC8009227CAF3074500EB972059F8233059F892
:103DD8002550C2F309020B9206EB90260A9A03EBD0
:103DE8009623CCF3090C079305EB93254FEA1A6A3F
:103DF800029BCDF808C09446099A59F82AA04CEAC3
:103E0800024C029AC4F309040AEB952A44EA0244D4
:103E18000B9ACDF820A0C8F30908C3F3090ACEF31A
:103E2800090E079BC1F3090141EA084142EA0E481D
:103E3800089AC6F30906C3F30903CBF3090BC7F3C2
:103E48000907C2F3090E43EA0643C0F30900960ABC
:103E5800C5F30905029640EA07404AEA0B4A4EEACA
:103E68000545534E039F2CFB0676524F2AFB0766E7
:103E7800514F21FB0766514F24FB0766504F28FB23
:103E88000766504F20FB07664F4F23FB07664FF42A
:103E9800803725FB07664D4F049A2CFB072E4C4AAA
:103EA8002AFB02EE4B4F21FB07EE4B4F24FB07EE9C
:103EB8004A4F28FB07EE4A4F20FB07EE494F23FBEA
:103EC80007E7DFF844E125FB0E724FF0010B039280
:103ED8002CFB0BFB444F2AFB07BA444F21FB07AAD4
:103EE800434F24FB07AA434F28FB07A7424A20FB5E
:103EF8000277424A23FB0277414B25FB0373109D4F
:103F08000493A6F5801685B10C9A0D990D96324446
:103F1800521AD117A2FB052305FB013312F1004207
:103F280043F100035B000C931E460198069C018D2B
:103F38000E9DF6014FF000420023C5FB062304FB4B
:103F480001F10F9A9B1003F30F0322F81130C38C71
:103F5800621C9342069218DD019B5A8D012A7FF458
:103F680080AE5B6B059D9B0629686A68A868D5F8D2
:103F78000CA005F1100406D549BA52BA40BA9AFA0B
:103F88009AFA0594CFE60594CDE6019A04999160D2
:103F98000399D160029BD361114613460C9A0A61BA
:103FA8000D99596111999961002013B0BDE8F08FFE
:103FB800690078004E005B003700420024002D00A5
:103FC80015001C000A000F00030006009600880078
:103FD800AC00A200BA00B400C000BE00BE00C00021
:103FE800B400BA00A200AC00060003000F000A00EB
:103FF8001C0015002D002400420037005B004E0015
:10400800780069000C000020880096002DE9F04F28
:10401800914683B0D28CD9F81830D9F80C40009367
:104028008046D9F81470D9F81000D9F81C30D9F89E
:1040380008500194D9F830A0D9F820E0002A4ED0D1
:10404800DFF8A8C08C1E08EB420B58F8022B52BAB6
:10405800D6B2C2F307215CF826205CF8211013447D
:1040680001EB9322C2F30901C3F3090341EA0341B7
:10407800930A1C4A21FB02521B4D21FB05F5A2F5B0
:1040880000621044C01BC717A0FB0E0110F10040CE
:104098000EFB071141F1000148044FF000460027CC
:1040A800C0FB0A67D8454FEA41004FEAA701174607
:1040B80001F30F0124F8021FC7D10199C9F81C3078
:1040C800009BC9F810000020C9F80850C9F80C1066
:1040D800C9F81420C9F8183003B0BDE8F08F3A4683
:1040E8002146EBE701000300030001000C0000205B
:1040F8002DE9F04F89B0D38C96690493176B07921A
:104108001569546906969368D669D2F80CC0D2F836
:1041180020A0049A0597002A7ED0A1F1020B00275F
:10412800A846CDF804B05546E346DFF8F8E0BA46AD
:104138009C4655E00278C3784178120202EB0343AB
:104148000B440230D9B2C3F307225EF821705EF83F
:1041580022201B0C07EB962702EB97225EF82360C0
:10416800C7F30903C2F3090706EB922647EA03439C
:104178002A4A23FB02B12A4A23FB02CBC6F3090CC5
:104188000CEB4C0C0BEB4C0B012223FB02F7A1F5BB
:10419800D85101EB0802121BD417A2FB052312F118
:1041A800004205FB043343F10003059CDA034FF09A
:1041B80000484FF00009C4FB0289CDE90289019A41
:1041C8004FEA4308039B9B1003F30F0322F8023FB7
:1041D800049B01920AF1010A9A45BC440C460BD093
:1041E8001AF0010FA6D0C278837810F8041B1202C7
:1041F80002EB03430B44A5E763464546DC460798B4
:10420800416106998360C0F80CC0C661056181618F
:10421800002009B0BDE8F08F2146F0E70100030057
:10422800070006000C0000202DE9F04F924687B0E9
:10423800D28CDAF81830DAF830500493DAF81040F3
:10424800DAF81480DAF81C60DAF80830DAF80CE0EA
:104258000195DAF820C0002A7BD001EB42023E4FDC
:10426800CDF80CC002920D46A1468446CDF814A0A4
:104278005CF8041B49BAC8B2C1F30722C1F3074A64
:1042880057F8200057F82220090E00EB962057F81F
:104298002A6057F8211002EB902206EB922A01EBD4
:1042A8009A26C2F30902C6F30901C0F30900CAF34A
:1042B800090A42EA004041EA0A4A284A20FB02E287
:1042C8004FF480312AFB0121254A20FB0233254A7D
:1042D8002AFB023E012320FB03F0234B2AFB0303A6
:1042E800A1F58042039C02EB0900A0EB08004FEA0D
:1042F800E07BA0FB040110F1004004FB0B1141F12D
:104308000001019C88034FF000484FF00009C0FBF2
:1043180004894FEAA9004FEA410900F30F00029906
:1043280025F8020B8D429046A2D1DDF814A04C4628
:10433800CAF80830049BCAF80CE00020CAF81C60D0
:10434800CAF81040CAF81420CAF8183007B0BDE8F7
:10435800F08F4246ECE700BF0C0000200300060087
:104368000C000A000A000C00060003002DE9F04FBB
:1043780013461C4687B0254626462D6B0592D28CDF
:10438800D3F8149001958046356A18699B6904939F
:10439800D4F81CE0A3680295E468002A00F08C8039
:1043A80001EB4202454D03928C4698E8440008F11F
:1043B800060852BA76BAD7B2C2F3072155F827A031
:1043C80055F82110C2F30747120E0AEB9E2A55F83A
:1043D800277055F822205FFA86FB01EB9A21C6F375
:1043E800072E07EB912755F82B6055F82EE002EBC6
:1043F800972206EB92260EEB962EC1F30901C2F323
:104408000902CEF3090BCAF3090AC7F30907C6F371
:10441800090642EA074741EA0A4A4BEA0646284A99
:104428002AFB0242274927FB01224FF4803126FB51
:10443800012225492AFB01344FF01B1327FB0344B3
:10444800224B26FB034401212AFB01FA204B27FBC0
:1044580003A7204B26FB0373A2F55842029E019F37
:104468001044A0EB09004FEAE07AA0FB060110F126
:10447800004006FB0A1141F1000108034FF0004912
:104488004FF0000AC0FB079A5746B81000F30F0018
:104498002CF8020B480003998C45914685D1059D5F
:1044A8006A61049A28610020AB60EC60C5F81CE0E2
:1044B800AA6107B0BDE8F08F4A46F0E70C0000207B
:1044C8000A000F0003000600190015001500190066
:1044D800060003000F000A002DE9F04F89B01446CA
:1044E8000792D38CD2F810C0D2F814809269069241
:1044F800E2680192226B0392226AE569A668049237
:10450800002B00F0B08001EB4303584F0593029154
:1045180050F8082B50F8043C52BA93FA93F9D4B2E5
:10452800C2F3072357F824B057F823300199C2F390
:104538000744120EAB4457F8245057F822405FFA4C
:1045480089F203EB9B2EC9F3072305EB9E2A57F844
:10455800222057F82330C9F3074504EB9A244FEA81
:10456800196902EB942257F8255057F8299003EB64
:10457800922305EB932509EB9529CEF3090ECBF38E
:10458800090BCAF3090AC3F30903C5F309054EEA7F
:104598000B4BC4F30904C9F3090EC2F3090243EA39
:1045A80002424EEA054E44EA0A444FEA9925304B46
:1045B8002BFB03132F4924FB01332F4922FB013323
:1045C8004FF4803A2EFB0A392C4B2BFB03662EFB4B
:1045D80013662B4B24FB036622FB13634FF0010A7F
:1045E80001932BFB0AFB274B24FB03BA264B22FB28
:1045F80003A2264B2EFB0326A9F5003A0AEB0C0270
:10460800049C0399A2EB08024FEAE279A2FB042377
:1046180012F1004204FB093343F10003DA024FF0C0
:1046280000484FF00009C1FB028902994FEAA9022C
:104638004FEA430C02F30F02059B21F8022B994223
:104648000291D0467FF464AF079A0199D160069928
:1046580096600020D561C2F810C0C2F814A091611C
:1046680009B0BDE8F08FC2462246EEE70C000020F4
:1046780015001C000A000F00030006002A00240091
:1046880030002E00060003000F000A001C00150071
:104698002DE9F04F134689B08646186900901846F0
:1046A8001C465B69029383690693D0F808C0C36906
:1046B800C06807920190D28C206B0390206A049006
:1046C800002A00F0D28001EB4202694805921C469C
:1046D800DEF80050DEF80420DEF808300EF10A0E8D
:1046E8006DBA52BA93FA93FBEEB2C5F3072350F8AA
:1046F800267050F82330C5F3074604EB070A2D0E41
:1047080050F8264050F8256003EB9A2304EB9329D0
:10471800D5B2C2F3072450F8257050F82450C2F3DC
:10472800074406EB9926120E07EB962850F82470DA
:1047380050F822205FFA8BF405EB9825CBF3072B72
:1047480007EB952750F8244050F82BB002EB97223E
:1047580004EB92240BEB942BC6F30906C9F3090961
:10476800CAF3090AC5F30905C7F30907C4F309041D
:1047780046EA0949C3F30903CBF30906C8F3090854
:10478800C2F3090245EA084842EA074246EA0446F3
:1047980043EA0A434FEA9B24364D019F23FB0575E4
:1047A800354F29FB0755354F28FB0755344F22FB5A
:1047B80007554FF4803A26FB0A5B324D23FB05CCA4
:1047C800314D29FB05CC4FF04B1528FB05C52F4F64
:1047D80022FB07552E4F26FB07554FF0010A01957E
:1047E80023FB0AFA2B4B29FB03A92B4D28FB059821
:1047F8002A4D22FB05822A4B26FB032C009B049D95
:10480800ABF57A3A53441A46029BCDF808A0D21A5F
:10481800D717A2FB052305FB073312F1004243F12A
:104828000003039D9A024FF0004600275B00C5FB7A
:104838000267BA10009302F30F02059B21F8022BBE
:1048480099427FF445AF234607990198C860009ABA
:10485800C1F808C00846CB610A61C1F814A00699DE
:104868008161002009B0BDE8F08FDDF808A0EBE712
:104878000C00002024002D0015001C000A000F0069
:10488800030006003F003700490045004500490085
:1048980037003F00060003000F000A001C00150047
:1048A8002D0024002DE9F04F93B014461192D38CBB
:1048B8001269039222461546646906941446926961
:1048C8001092EA6804922A6BE6690D92A4682A6A33
:1048D80005940E92002B00F0458101EB43030F93E2
:1048E800DFF8DC82079100F110039946A9F1100165
:1048F8000EC959F8040C49BA52BA5BBA90FA90FA40
:10490800C1F30720CCB258F8205058F82440C1F31E
:104918000740090E264458F8204058F82170D0B2B4
:1049280005EB962504EB952BC2F3072158F8204098
:1049380058F8211007EB9B27C2F30740120E04EB2F
:104948009724019758F82000274658F822400297E4
:10495800DAB201EB972100EB912C58F8220004EB16
:104968009C2400EB942EC3F30722C3F307401B0ECD
:1049780058F8207058F8222058F823005FFA8AF374
:10498800C6F309060A9602EB9E2258F82360C5F37F
:104998000905CAF307230B9507EB9227CAF30745C6
:1049A80000EB972058F8233058F825504FEA1A6A38
:1049B80006EB902603EB962358F82AA0089305EBFC
:1049C8009325019B0AEB952ACDF824A0C3F3090A85
:1049D800029BC3F309030293089BC3F309030893DB
:1049E8000B9BC5F309050C951D460A9BCEF3090ED2
:1049F800C2F3090245EA034342EA0E420193029BCD
:104A08000292099A0C9DC7F30907C0F3090040EA0E
:104A18000740C1F30901C2F3090741EA034147EA24
:104A28000545089B019FCBF3090BCCF3090CC6F392
:104A38000906C4F3090443EA0643BE46960A4AEA4D
:104A48000B4A44EA0C44494F049A2EFB072E484A65
:104A58002AFB02EE474A21FB02EE474A24FB02EEFC
:104A6800464A029F27FB02EE454A20FB02EE454AD2
:104A780023FB02E74FF4803E25FB0E7E019F424A4E
:104A8800BC46059F2CFB027C404A2AFB02CC404FC7
:104A980021FB07CC3F4F24FB07CC3F4F029A22FB58
:104AA80007CC3E4F20FB07CC3D4F23FB07C7DFF861
:104AB80014C125FB0C724FF0010B0492019F27FBD8
:104AC8000BFB384F2AFB07BA374F21FB07AA374F92
:104AD80024FB07AA364F029A22FB07A7354A20FB78
:104AE8000277354A23FB0277344B25FB0373059382
:104AF800039B0E9CAEF5801E73441A46069BCDF8A8
:104B080018E0D21AD117A2FB042304FB013312F1D7
:104B1800004243F100030D9C1A024FF000400021AF
:104B2800C4FB02018A10079902F30F025B0021F807
:104B3800022B03930F9B0791994209F110097FF407
:104B4800D5AE119A059991600499D1601346D66142
:104B58001099039A1A610020C3F814E0996113B000
:104B6800BDE8F08FDDF818E0EBE700BF69007800DA
:104B78004E005B003700420024002D0015001C0089
:104B88000A000F000300060096008800AC00A2008F
:104B9800BA00B400C000BE00BE00C000B400BA0035
:104BA800A200AC00060003000F000A001C0015005C
:104BB8002D002400420037005B004E007800690099
:104BC8000C00002088009600F8B540220446002119
:104BD8000C3000F007FA3B493B4800F08DF9228879
:104BE800638938492589A38601284FF0000318BF37
:104BF8000021012A6164E586A36123616361E360A2
:104C08006362E3612362236418D903200223628864
:104C1800012A1DD940210023626BB2F1011F62688D
:104C280004BF21640B461AB143F010032364E26207
:104C38000022228708B980332364F8BD234D10D0A1
:104C48002A78012A27D06288012A4FF00100E1D88A
:104C580001D01846DEE72022184622641346602158
:104C6800DAE729780029EED11949DFF86CE0194F05
:104C780001F580664A680EEA025302EA0700034318
:104C8800C2F30952134441F8043F8E42F2D1012085
:104C980028700023BBE70E49DFF83CE00D4F01F513
:104CA80080664A680EEA025302EA07000343C2F329
:104CB8000952134441F8043F8E42F2D100232B706D
:104CC800C1E700BFCDB5E8B5C2A507F4ED040020E3
:104CD8000800002000FC0F000000F03F664B426C0B
:104CE8009A4201D00420704730B50A88036C2DED34
:104CF800048B04460D46511E23F48070062983B0A8
:104D080020641AD90820B4F93810B5F9043099424A
:104D18007ED013F10C0F2ADA4FF6F4734030AB80D3
:104D280022866B88638620B9236C43F480732364DE
:104D3800002003B0BDEC048B30BD218E91426CD0B5
:104D480023F4877323F00103134303F070012364F2
:104D5800702903F00F0303F1FF3366D0062B00F22E
:104D68008980DFE803F0524F4C49433D4600332B1E
:104D780032DC226C02F00F02013A062A72D83F494F
:104D880001EB820292ED009A92ED078A019007EEFC
:104D9800903AF8EEE77AF3EE040AC7EEA00AB2EE0C
:104DA800040A00F04DF9DFED360AF0EE408A70EEA5
:104DB800C90AB0EE000A00F043F928EE288A28EE66
:104DC800000A00F017F9BCEEC00AAB882A880198DF
:104DD80084ED0F0A2387A3E733234030AB809FE796
:104DE800284BA364B5F90430002092E7264BA3644E
:104DF800F8E7264BA364F5E7254BA364F2E7254BB8
:104E0800A364EFE7244BA364ECE7244BA364E9E72E
:104E1800218E91427FF47DAF83E7B5F90430B4F970
:104E28003810994223D0002073E7062B22D8DFE8F8
:104E380003F01613100D0A070400194BA364D1E7F9
:104E4800184BA364CEE7184BA364CBE7174BA364B6
:104E5800C8E7174BA364C5E7164BA364C2E7164B14
:104E6800A364BFE79FED158AB0EE489A8EE76B887A
:104E7800638659E7002046E7CDB5E8B5085900082C
:104E8800000000425132000831310008E1330008C7
:104E9800253C000885390008653700087935000881
:104EA80031420008F940000815400008AD480008E4
:104EB80099460008E1440008754300080000000016
:104EC80010B40C4B546C9C4203D004205DF8044B86
:104ED8007047136CDC0507D413F0800F14BF202033
:104EE80030205DF8044B7047936C5DF8044B0C322E
:104EF800184700BFCDB5E8B5174A136810B423F0BA
:104F08000103164C1360236833B9154B1B68C3F3B0
:104F18000B03B3F58A6F0FD0124A0123136013688D
:104F2800002BFCD1104B5DF8044B18601868081A68
:104F3800B0FA80F0400970470C4A012313601368E7
:104F4800002BFCD10A4B5DF8044B18601868401A16
:104F5800B0FA80F040097047002000E0002004E02B
:104F68000010005C0830024000300240084C025833
:104F7800004C0258014B1868704700BF0C04002011
:104F880070B50D4D0D4C641BA4100026A64209D126
:104F98000B4D0C4C00F098FC641BA4100026A64294
:104FA80005D170BD55F8043B98470136EEE755F832
:104FB800043B98470136F2E76C5900086C59000821
:104FC8006C590008705900080A44914200F1FF33F7
:104FD80000D1704710B511F8014B03F8014F914209
:104FE800F9D110BD02440346934200D1704703F83B
:104FF800011BF9E710EE100AC0F3C753A3F17F02B3
:10500800162A15DC002A08DA013200F0004301D123
:1050180043F07E5300EE103A7047084911410842A8
:10502800FAD04FF480031341034423EA0103F1E764
:10503800802AF1D130EE000A704700BFFFFF7F00E1
:1050480008B52DED048BB0EE409AF0EE608A00F0C2
:105058008FF8434B93F900300133B0EE408A12D0F9
:10506800F4EE688AF1EE10FA0DD6B4EE499AF1EE34
:1050780010FA0DD7F5EE408AF1EE10FAF7EE007A45
:1050880008BFB0EE678AB0EE480ABDEC048B08BDD5
:10509800DFED349AB4EE699AF1EE10FA16D1F4EE17
:1050A800698AF1EE10FA57D0B0EE680A00F02AFBD0
:1050B8000028E8D0F4EEE98AF1EE10FAE3D5FFF71C
:1050C80059FF212303609FED288ADCE700F01AFBD3
:1050D80050BBB0EE490A00F015FB28B3B0EE680AE1
:1050E80000F010FB00B3B4EE488AF1EE10FA06D7D0
:1050F800FFF740FF212389EEA98A0360C3E7FFF782
:1051080039FFB5EEC09A2223F1EE10FA036008D5F4
:10511800B0EE680A00F00AFBB4EE680AF1EE10FA85
:10512800D1D19FED128AAEE7B5EE408AF1EE10FAC2
:10513800A9D1B0EE490A00F0E5FA0028A3D0B0EEF4
:10514800680A00F0DFFA00289DD0FFF713FF22233A
:105158009FED048A036096E7B7EE008A93E700BFE5
:105168007004002000000000000080FF0000807F25
:105178002DE9F04110EE905A35F000472DED028BE5
:10518800B0EE408AF0EE608A00F0918210EE108A4C
:1051980028F00044B4F1FF4F06DCB7F1FF4F0ADDF9
:1051A800B4F17E5F00F08382BDEC028BD848BDE885
:1051B800F04100F0B5BAB8F1000F1FDAB7F1974F18
:1051C8002EDAB7F17E5FC0F27B82FB15C3F196033E
:1051D80047FA03F606FA03F3BB4240F0718206F081
:1051E8000106C6F10206B7F17E5F20D1002D80F2DC
:1051F8006482F7EE007A87EE880A0DE00026B7F1A0
:10520800FF4FF0D1B4F17E5F00F051820ADD002D2E
:1052180080F250829FEDBF0ABDEC028BBDE8F081A1
:105228000226ECE7002DF5DAB1EE680AF4E7B5F1ED
:10523800804F02D128EE080AEEE7B5F17C5FB0EEA8
:10524800480A08D1B8F1000F05DBBDEC028BBDE8B8
:10525800F04100F04DBA00F04EFA24B128F0404376
:10526800B3F17E5F17D1002DBCBFF7EE007A87EE51
:10527800800AB8F1000FCFDAA4F17E5454EA06038D
:1052880004D170EE407A87EEA70AC5E7012EC3D194
:10529800B1EE400AC0E74FEAD870013856EA000379
:1052A80004D138EE488A88EE080AB5E7B7F19A4F74
:1052B8006BDD994B9C4206DC002DABDA9FED970A1B
:1052C80020EE000AA8E7964B9C4202DD002DF5DC93
:1052D800A0E7F7EE007A30EE670ADFED926AF5EEA6
:1052E800007AE0EE676AF6EE007AE6EEC07A20EE23
:1052F800007A67EE277A9FED8C7A67EE677A9FEDE2
:105308008B7AE0EE077A9FED8A7AF0EE676AE0EE34
:10531800076A16EE903A23F47F6323F00F0300EE3A
:10532800903AE0EE470A77EEE07A25F47F6525F0BB
:105338000F0507EE105A67EEA80A38EEC77A07EE8F
:10534800903AE7EE270A013E56EA000207EE105AA5
:1053580067EE877AB7EE008A30EEA77ABFEE000ACA
:1053680017EE104A08BFB0EE408A002C24F0004324
:1053780040F38481B3F1864F40F3FC80DFED677A18
:1053880028EE270A20EE270A46E718F0FF4F01BF4C
:10539800DFED687A60EE277A6FF0170217EE904A11
:1053A8004FEAE45318BF00227F3B1344624AC4F318
:1053B8001604944244F07E5106DD604A944240F35C
:1053C800A4800133A1F5000100245D4A02EB8402A8
:1053D80007EE901A92ED007A5A4A37EE276AF7EEEE
:1053E800005AC5EE866A491041F0005101F5802146
:1053F80001EB445137EEC75A06EE101A65EE264AFD
:1054080036EE477A14EE907A174005EE907AA5EEBC
:10541800C65A77EEC77A9FED4C7AA5EEE75A64EE46
:10542800A47A25EE266ADFED496AA7EEA67ADFEDB3
:10543800486AE7EE276A9FED3B7AA6EEA77ADFED8A
:10544800456AE7EE276A9FED447AA6EEA77A74EEDE
:10545800A56A27EEA75A66EE866AE5EE076AB0EEF9
:10546800085AF0EE457AE5EEA57A77EEA67A17EEB9
:10547800901A114007EE901A37EEC57AA5EEE57A34
:1054880036EEC77A27EE247AA6EE277AB0EE476A78
:10549800A5EEA76A16EE101A114006EE901AE5EE70
:1054A800E76ADFED2E7ADFED2E5A37EE667A06EEE2
:1054B800101A27EE277ADFED2B7A2B49A6EE277AEA
:1054C80001EB8401D1ED007A37EE277A07EE903AA6
:1054D800264BF8EEE76AF0EE477AE6EE257A03EB1C
:1054E8008404D4ED000A77EEA07A77EEA67A17EE58
:1054F800903A134007EE903A77EEE66A76EEE06A65
:10550800E6EE656A77EE667A0FE701245DE700BF8D
:105518004059000800000000F7FF7F3FCAF24971B8
:105528000700803FABAAAA3E3BAAB83F70A5EC365D
:1055380000AAB83F0000804B71C41C00D6B35D00C0
:105548004459000800F0FFFF55326C3E42F1533ECB
:1055580005A38B3EB76DDB3E9A99193F4F38763FCE
:105568000038763FA0C39D36545900084C590008AE
:105578003CAA383340F092805FED036A37EE677AD1
:1055880070EEA66AF4EEC76AF1EE10FA3FF7F6AECF
:10559800DB15A3F17E004FF400030341234449497E
:1055A800C3F3C7527F3A114123EA010107EE101AEB
:1055B800C3F3160040F40000C2F117021041002C9A
:1055C80077EEC77AB8BF404237EEA07ADFED3E6A81
:1055D80017EE103A23F47F6323F00F0307EE103A17
:1055E80077EE677A70EEE70ADFED387A67EE277AAA
:1055F800E0EEA67ADFED366AB0EE670AA7EE260A75
:10560800B0EE406AA7EE666A20EE007A77EEC67AB8
:10561800DFED306A9FED306AA7EE266ADFED2F6A6C
:10562800E6EE076A9FED2E6AA6EE876ADFED2D6A21
:10563800E6EE076AB0EE406AA6EEC76AF0EE006AC8
:10564800B0EE467A77EE666A20EE066AE0EE277AD2
:1056580086EE267A77EE677A37EEC00AF7EE007A9A
:1056680037EEC00A10EE103A03EBC053B3F5000F43
:105678001ADA00F0B7F820EE080ACDE51A4A934284
:1056880002DDDFED1A7A7BE608D137EE677AB4EEF1
:10569800E07AF1EE10FAFFF67BAFF2E7B3F17C5F48
:1056A8003FF776AF00208FE700EE103AE3E7B7EE5A
:1056B800000AB1E5B0EE680AAEE5B0EE480AABE51F
:1056C800002690E5FFFF7F001872313F8CBEBF3582
:1056D8000072313F4CBB31330EEADDB555B38A3821
:1056E800610B36BBABAA2A3E000016436042A20DEE
:1056F800B1EEC00A704710EE103A23F0004300EEF6
:10570800103A704782B08DED010A019820F00040F0
:10571800B0F1FF4FACBF0020012002B0704700007D
:105728009FED010A704700BF0000C07F10EE102AED
:1057380013B5C2F3C7517F39162922F0004347DC5D
:105748002BB3002910EE103A4FEAD27021DAC2F3D7
:1057580016035B4221495B0A120D03F4800312050C
:10576800134301EB800107EE903AD1ED006A36EE63
:10577800A77A8DED017ADDED017A77EEE67A17EEFC
:10578800903A23F0004343EAC07300EE103A02B0A7
:1057980010BD134A0A411342F9D0540813EA5202C1
:1057A80006D04FF4001223EA040342FA01F10B4336
:1057B8000A4A02EB800090ED007A07EE903A77EE05
:1057C800277ACDED017A9DED010A30EE470ADEE732
:1057D800B3F1FF4FDBD330EE000AD8E75C5900087D
:1057E800FFFF7F0010EE103A33F0004225D0B2F1EF
:1057F800FF4F02D330EE000A704713F0FF4F22D15B
:105808002A4BDFED2B7A984220EE270A16DB10EEA2
:10581800103AC3F3C752193A0244FE2A15DD10EEB6
:10582800103ADFED247ADFED246A002BB0EE677AB8
:10583800B8BFF0EE667A27EE270A7047DFED1F7AC9
:1058480020EE270A7047D20DE6E7002A06DD23F08E
:10585800FF4343EAC25300EE103A704712F1160FA5
:105868001ADA4CF25033984210EE103A03F0004323
:105878000ADD9FED100A9FED107AF0EE407A002BBA
:1058880018BFB0EE470ADBE79FED0C0A9FED0C7AD4
:10589800F0EE407A002BF3E7193223F0FF4343EA96
:1058A800C253DFED087A07EE103AC4E7B03CFFFFB9
:1058B8000000004CCAF24971CAF249F16042A20DD7
:1058C8006042A28D00000033F8B500BFF8BC08BCE8
:1058D8009E467047F8B500BFF8BC08BC9E467047A6
:1058E8000000000000000000010203040607080988
:1058F800000000000102030400061016000610163E
:105908000000304100002041000010410000E0404C
:1059180000008041000060410000504126B417405B
:105928000000803F6F12033F0000003E00008042ED
:1059380026B4974100000041000000000000803FAD
:105948000000C03F0000000000C0153F000000003C
:0C595800DCCFD1350000004B000000CB7C
:08596400A4A8FF7F0100000070
:04596C00BD01000871
:045970009901000891
:105974000024F400010000001000000000000000FA
:105984000090C00101A850010138110303B8F000D0
:105994000348B1020460410204F0010406C0A000FF
:1059A400065061020768F10107F8B1030978910113
:1059B400090852030A20E2020AB0A2040AC06000E5
:1059C4000A5021020B68B1010BF871030D785101E3
:1059D4000D0812030E20A2020EB062041080010111
:1059E4001010C2021128520211B812041338F20125
:1059F40013C8B20314E04203147003050FB8300057
:105A04000F48F1011060810110F04103127021016F
:105A14001200E2021318720213A832041578D1009E
:105A2400150892021620220216B0E2031830C201B1
:105A340018C0820319D812031968D3041978910085
:105A4400190852021A20E2011AB0A2031C30820182
:105A54001CC042031DD8D2021D6893041F383201B2
:105A64001FC8F20220E082022070430422F02202C6
:105A74002280E303239873032328340515A8100018
:105A84001538D1011650610116E021031860010197
:105A940018F0C10219085202199812041B68B100C7
:105AA4001BF871021C1002021CA0C2031E20A201DA
:105AB4001EB062031FC8F2021F58B3041F687100AE
:105AC4001FF831022010C20120A0820322206201AB
